:020000040800F2
:10000000F81700204501000801250008B91F000865
:10001000FD2400081D130008E72E00080000000062
:100020000000000000000000000000002926000879
:100030006715000800000000892500083D2700081A
:100040005F0100085F0100085F0100085F01000810
:100050005F0100085F0100085F0100085F01000800
:100060005F0100085F0100085F010008211300081C
:100070005F0100085F0100085F0100085F010008E0
:100080005F0100085F0100085F0100085F010008D0
:100090005F0100085F0100085F0100085F010008C0
:1000A0005F0100085F0100085F0100085F010008B0
:1000B000592B00085F0100085F0100085F0100087C
:1000C0005F0100085F0100085F0100085F01000890
:1000D0005F0100085F0100085F0100085F01000880
:1000E0005F0100085F0100085F0100085F01000870
:1000F0005F0100085F0100085F0100085F01000860
:100100005F0100085F0100085F0100085F0100084F
:100110005F0100085F0100085F0100085F0100083F
:100120005F0100085F0100085F0100085F0100082F
:10013000DFF80CD000F02AFF004800473D3C0008E3
:10014000F81700200648804706480047FEE7FEE70C
:10015000FEE7FEE7FEE7FEE7FEE7FEE7FEE7FEE777
:100160007D270008310100082DE9F04F4FF0000C09
:100170004FF0000301EB1C6EBEF90250BEF90040C7
:100180000EF5807EBEF90290BEF900800EF5807EED
:10019000BEF90270BEF900600EF5807EBEF902B0B5
:1001A000BEF900A00EF5807ED044D944A8EB4A0ADF
:1001B000A9EB4B0B4FEAA4044FEAA50504EBA604F8
:1001C00005EBA705A4EB6606A5EB670704EBA804FF
:1001D00005EBA905A4EB6808A5EB690906EBAB06DE
:1001E000A7EBAA07A6EB6B0B07EB6A0A458020F882
:1001F000044B478020F8046BA0F8029020F8048B91
:10020000A0F802A020F804BB03F1010393FAA3FCB9
:10021000402BAFD1A0EB82014FF0100312090FF277
:10022000361000F1000006B403EB430C6144A2F564
:10023000803202EB8332B1F90250B1F90040A1EBF8
:100240000301B0F902B0B0F900A000F10400A5EB81
:10025000040E0EFB0BFC0AEB4B0E05FB0ACB04FB5A
:100260000ECAB1F90250B1F90040A1EB0301B0F997
:100270000290B0F9008000F10400A5EB040E0EFB23
:1002800009FC08EB490E05FB08C904FB0EC8B1F9CF
:100290000250B1F90040A1EB0301B0F90270B0F9CE
:1002A000006000F10400A5EB040E0EFB07FC06EB5A
:1002B000470E05FB06C704FB0EC6B1F90250B1F9A3
:1002C000004001F10001D044D944A8EB4A0AA9EB4F
:1002D0004B0B4FEAA4044FEAA50504EB264405EBBB
:1002E0002745A4EBE636A5EBE73704EB284405EBFE
:1002F0002945A4EBE838A5EBE93906EB2B46A7EB3B
:100300002A47A6EBEB3B07EBEA3A4D800C801944F9
:100310004F800E801944A1F80290A1F80080194482
:10032000A1F802A021F804BBB2F5803283DA03EB16
:10033000430C6144A2F101025FEA024E18BFA0EB38
:100340000C007FF476AF06BC4FEA830392087FF47B
:100350006AAFBDE8F08F00400000004000000040A0
:1003600000005DDD213BA3227E180000412D7EA50B
:10037000412D0000412D00C000405DDD82E75DDDC4
:10038000213B7EA5412D00400000004000000040C0
:100390000000AA2A94126B39460649327C0CA81137
:1003A0008E2349327C0CA3227E1821F77931AA2AA8
:1003B0009412A8118E235DDD213BA3227E1800003C
:1003C000412D95C6B13F461A2B1E58EE3735BEB4A7
:1003D000C53EA8118E235DDD213B63A97138DF087E
:1003E0009A28B7CDC53E7EA5412D0000412D00C005
:1003F000004063A92B1E21F77931BEB4C53EBEB4BF
:100400007C0C58EE373561AC213B95C6BAF9BAE59C
:1004100071383BA737355DDD82E75DDD213B7EA589
:10042000412D21F766D756D53F3D3BA78E23A81116
:10043000C9CAB7CDC53E61AC7E18AA2AC1C295C64D
:10044000B13FBEB47C0C0040000000400000004002
:1004500000001E3BB504693E9201C83C2403EB3505
:100460006409C83C24036B3946066C30060E1E3BFB
:10047000B504EB356409AA2A94126B394606493251
:100480007C0CAE240917AF37D607882E8D0F7E1E41
:100490005D1BEB356409AA2A941224188C1F1E34A4
:1004A000F10AB3269015A8118E2349327C0CA322A1
:1004B0007E18140B60276C30060E7E1E5D1B7104C7
:1004C000FB2A882E8D0F461A2B1EC7FD5A2E9D2CF7
:1004D0001211FE15E72021F77931AA2A9412A811EA
:1004E0008E2387F05334B2281314480D202602EAD5
:1004F000E536B3269015DF089A289CE32B39AE2405
:1005000009177104FB2A5DDD213BA3227E18000040
:10051000412D4ED7C53C9320EF198FFB6C2F78D11E
:10052000153E7E1E5D1B21F77931E2CB0F3F641C27
:10053000C61CB8F2683395C6B13F461A2B1E58EE5A
:10054000373597C1FB3F24188C1F02EAE536F0BC13
:10055000EC3FFE15E720BAE57138A6B8853FD51304
:100560003D2282E1DB39BEB4C53EA8118E235DDD9C
:10057000213B40B1AF3D790FDA244DD9423C2EAE3C
:10058000423C480D202656D53F3D8EAB823A140B97
:10059000602778D1153E63A97138DF089A28B7CD56
:1005A000C53EB1A71236A906CE2915CA4F3F78A677
:1005B00068337104FB2A95C6B13FBCA57630390279
:1005C000212C38C3EC3F7EA5412D0000412D00C0F9
:1005D0000040BCA5CE29C7FD5A2EF0BCEC3F78A642
:1005E00020268FFB6C2F09BAB13FB1A73D2257F9E6
:1005F00076304DB74F3F63A92B1E21F77931BEB43A
:10060000C53E8EABEF19ECF474325EB2153E2EAEE1
:100610009015B8F268332DB03F3D40B1121187F00C
:1006200053342EAE423CBEB47C0C58EE373561AC30
:10063000213BA6B8D6072BEC1236C8AADB39F0BC92
:10064000240302EAE53663A9713897C16EFEDCE740
:10065000B03734A8E53695C6BAF9BAE571383BA784
:100660003735E2CB0FF59CE32B3978A6683378D188
:1006700073F082E1DB39EDA579314ED7EDEB6DDF1B
:10068000823A99A56C2F5DDD82E75DDD213B7EA579
:10069000412D9CE33AE352DBB63B99A5FB2A02EAE3
:1006A00019DF4DD9423CEDA59A2887F026DB4ED7BD
:1006B000C53C78A6202621F766D756D53F3D3BA7F7
:1006C0008E23C7FDDFD363D3AF3D34A8E720710489
:1006D00094D078D1153E63A92B1E140B8CCD94CFEA
:1006E000723EC8AA5D1BA811C9CAB7CDC53E61AC90
:1006F0007E18241850C8E2CB0F3F2EAE90157E1EF8
:1007000025C615CA4F3F2DB09412AE244AC451C815
:10071000853F5EB28D0FAA2AC1C295C6B13FBEB455
:100720007C0C6C308EC1E2C4D43F4DB76409EB350C
:10073000B1C038C3EC3F09BA46061E3B2CC097C176
:10074000FB3FF0BC2403F0B480EA0102D40F420066
:10075000B2EB410F02D20246084611464A0042D08F
:10076000C30DDDB2C1F3C752AD1A202D35DAC1F386
:10077000160141F4000204B15242C5F1200602FA0A
:1007800006F12A411044B3EBD05F23D0C4B1012D50
:10079000A0EBC35009DCF0BC4FF0004202EAC352A8
:1007A000DBB200F5000000F03EBA400000F18070BE
:1007B00000EBC350A0F1807040EAD170490009E01D
:1007C000490841EAC071A0EBC35000F500004008A1
:1007D00000EBC350F0BC00F01DBA6142012202EBF5
:1007E0004101001BF6E7F0BC704781F00041AAE729
:1007F00080F00040A7E780EA010210B502F0004354
:10080000400022D04A001FD0010E01EB1261C0F35C
:100810005600C2F3560240F4000042F40002A0FB6E
:10082000022000047F39140400D0401C50EA12401A
:1008300001D44000491EC2B20C0604EBD010401C8B
:100840004008802A02D003E0002010BD20F0010003
:10085000002900DA0020184310BD30B480EA0102FC
:1008600002F0004530F0004221F0004013D090B17A
:10087000C30DD40DC2F31601C0F31600E41A41F4FF
:10088000000140F400027D34914201D3641C00E079
:100890004900002C02DA30BC002070474FF4000001
:1008A0000023914201D3891A034340084FEA4101D2
:1008B000F7D151B1914202D14FF0004105E002D28F
:1008C0004FF0010101E06FF0010103EBC450284437
:1008D00030BC00F09FB92DE9FE4F81EA030404F01B
:1008E000004421F0004100944FF0000B23F000433E
:1008F00050EA01045ED052EA03045BD0C3F30A5409
:10090000C1F30A552C44A4F2F3340194A0FB025421
:10091000C1F3130141F48011C3F3130343F48013B3
:1009200001FB024400FB034E840A970A44EA815407
:1009300047EA8357A4FB076802958D0A05FB0785E4
:100940004FEA932C04FB0C542705029D4FEA0658EE
:1009500047EA1637B5EB08056EEB070C870E920ECB
:1009600047EA811742EA8312A7FB0201B6EB0B01AB
:1009700064EB00042B0D43EA0C335E1844EB1C506F
:10098000DA465146E7FB0201C5F313044FEA0B3385
:1009900043EA14534FEA0432019C43EA0603A4F1EC
:1009A0000C040294009CCDE900B400F079F903B086
:1009B000BDE8F08F00200146F9E72DE9F04D81EA0E
:1009C000030404F0004B21F0004514464FF0000AE8
:1009D00023F0004150EA050220D054EA01021DD064
:1009E000C5F30A570246C5F31303C1F31300C1F35D
:1009F0000A5640F4801543F48013A7EB0608101B39
:100A0000D64608F2FD3873EB050002D308F1010861
:100A100001E092185B41B8F1000F03DA00200146B3
:100A2000BDE8F08D00204FF48011064684460EE0AC
:100A3000171B73EB050705D3121B63EB0503064376
:100A40004CEA010C49084FEA300092185B4150EA29
:100A50000107EDD152EA030012D082EA040083EAD2
:100A60000501084305D0101BAB4106D2012200232B
:100A700006E000224FF0004302E06FF00102531045
:100A80001AEB06004CEB085110EB0A0041EB0B018E
:100A9000BDE8F04D00F0F5B8C10F80EAE070084401
:100AA000CA079623002100F0BEB896230022114603
:100AB00000F0B9B80EB540F2334102910021CDE902
:100AC00000110A460B4600F0EBF803B000BD00F041
:100AD000004220F00040C10DC0F3160040F40000B9
:100AE0007F2901DA00207047962903DCC1F19601C5
:100AF000C84001E096398840002AF4D0404270474F
:100B000020F00040C10DC0F3160040F400007F2922
:100B100001DA00207047962903DCC1F19601C84034
:100B2000704796398840704700F0004230F000402E
:100B30000AD0C10D01F56071C0F3160042EA0151FF
:100B4000C20840071143704700200146704701F07A
:100B5000004330B421F0004150EA010206D00A0DF2
:100B6000A2F56072C1F31301002A02DC30BC002040
:100B70007047440F44EAC104C100E01830BC00EBE8
:100B8000C25000F047B830B50B4601460020202285
:100B9000012409E021FA02F59D4205D303FA02F58A
:100BA000491B04FA02F52844151EA2F10102F1DCEA
:100BB00030BD2DE9F05F0546002092469B468846F1
:100BC0000646814640241BE02846414647462246C9
:100BD00000F0FDF953465A46C01A914110D3114610
:100BE0001846224600F0E4F92D1A67EB01084F463B
:100BF00022460120002100F0DBF917EB00094E41ED
:100C0000201EA4F10104DFDC484631462A46434653
:100C1000BDE8F09F0029A8BF7047401C490008BFED
:100C200020F00100704710B4B0FA80FC00FA0CF01C
:100C300050EA010404BF10BC704749B1CCF1200454
:100C400021FA04F411FA0CF118BF012121430843E1
:100C5000A3EB0C01CB1D4FEA00614FEA102042BF0D
:100C6000002010BC704700EBC35010440029A4BF03
:100C700010BC7047401C490008BF20F0010010BCA8
:100C8000704710B5141E73F1000408DA401C41F1DE
:100C9000000192185B411A4301D120F0010010BD00
:100CA0002DE9F04D92469B4611B1B1FA81F202E076
:100CB000B0FA80F22032904600F07AF904460F46EE
:100CC00040EA0A0041EA0B0153465A46084313D052
:100CD000114653EA010019D0C8F14002504600F015
:100CE00076F905460E4650465946424600F060F9F0
:100CF000084305D0012004E020463946BDE8F08DC8
:100D00000020054346EAE0762C4337430A98630502
:100D1000E40AA0EB08000022FD0A44EA47540A3026
:100D200002D500200146E9E7010510196941DDE916
:100D3000084500196941BDE8F04DA2E72DE9FE4FD5
:100D4000804681EA0300C00F0C46009021F000416C
:100D500023F00045B8EB0200A94105D240462146E8
:100D600090461C460B46024623F00040104347D0F5
:100D7000270DC7F30A00C3F30A510290401A0190ED
:100D800040286BDAC3F3130040F4801B00989246AE
:100D900020B10023D2EB030A63EB0B0B01985946F9
:100DA000C0F14002504600F003F906460D46504699
:100DB0005946019A00F01BF910EB0800614100242C
:100DC00087EA115284EAE7731A4340D0009A62B36B
:100DD000019A012A4FEA075215DC001B61EB020160
:100DE0004FF0004202EA0752CDE90042001C41F5F3
:100DF000801132462B46FFF753FF03B0BDE8F08F5A
:100E000040462146F9E7001B61EB0201001C41F559
:100E1000801300185B412018A2F5001747EB03016F
:100E200040EAD570B6196D4111E06D084FEA3606FB
:100E300045EAC0754FEA0752001B61EB0201001C36
:100E400041F5801149084FEA3000001951413246FE
:100E50002B4603B0BDE8F04FFFF713BF0098012207
:100E600040000023D0EB020263EBE07300982146C0
:100E70004FEAE074B8EB000061EB0401E9E783F0AE
:100E800000435BE781F0004158E72DE9F04D002376
:100E90001A461B1A8A4103DB00200146BDE8F08D8B
:100EA000C1F30A52C1F3130141F480154FF0000B56
:100EB000D10702D100186D41521E0027044640F2AE
:100EC000FF11384601EB620A3E468046024600208A
:100ED0004FF4801100F07BF8C2197141BB1846EB4A
:100EE0000100B4EB030C75EB000C04D3E41A65EBC2
:100EF000000517460E46241908F101006D41804691
:100F00003428E3DDF91946EB0600091BA84103D29A
:100F10004FF0FF32134601E0002213461BEB07009F
:100F200046EB0A51BDE8F04DFFF7ABBEC1F30A52E4
:100F3000C1F3130140F2FF3341F480119A4202DA07
:100F400000200146704740F233439A42A2F23342F6
:100F500002DC524200F03BB800F02AB830B5041E63
:100F600071F1000404DB4FF00044404264EB0101E6
:100F7000141E73F1000405DB1C464FF0004352427F
:100F800063EB0403994208BF904230BD064C074D05
:100F900006E0E06840F0010394E807009847103449
:100FA000AC42F6D3FFF7C8F8D0590008F059000852
:100FB000202A04DB203A00FA02F100207047914019
:100FC000C2F1200320FA03F3194390407047202A0E
:100FD00004DB203A21FA02F00021704721FA02F3E3
:100FE000D040C2F120029140084319467047202AA0
:100FF00006DBCB17203A41FA02F043EAE07306E041
:1010000041FA02F3D040C2F1200291400843194650
:10101000704770B58C1810F8015B15F0070301D10B
:1010200010F8013B2A1106D110F8012B03E010F84B
:10103000016B01F8016B5B1EF9D12B0705D400236E
:10104000521E0DD401F8013BFAE710F8013BCB1A10
:10105000921C03E013F8015B01F8015B521EF9D505
:10106000A142D8D3002070BD00B58DB00121084643
:1010700001F08CFA4FF4C06001F07CFA0B208DF87F
:10108000040000208DF805008DF8060001208DF881
:10109000070001A801F036FA144800F097F9144847
:1010A000029014480390002004904FF48070059043
:1010B0000020069080200790400008908000099052
:1010C00020200A9000020B9000200C9002A90748F3
:1010D00000F02BFA01220621044800F01DFA01213C
:1010E000024800F067F90DB000BD000008000240A2
:1010F0004C2401408402002000B587B00121480241
:1011000001F064FA0121102001F060FA0220ADF82C
:10111000040000208DF8070001A91C4800F0EEFC37
:10112000002002908DF80C008DF80D0004900590C1
:1011300001208DF8180002A9154800F061F800237D
:1011400001220B21124800F083F80121104800F021
:1011500021F801210E4800F033F801210C4800F07D
:1011600024F80B4800F0D0F800BF094800F03DF823
:101170000028FAD1064800F0CCF800BF044800F07F
:101180002AF80028FAD107B000BD00000010014085
:101190000024014021B1826842F00102826003E034
:1011A000826822F001028260704721B1826842F4B5
:1011B0008072826003E0826822F4807282607047ED
:1011C00021B1826842F48012826003E0826822F4D6
:1011D000801282607047014600208A6802F0040293
:1011E0000AB1012000E000207047014600208A6813
:1011F00002F008020AB1012000E000207047000060
:1012000030B502460020002350680F4C20400D7975
:101210000C6844EA05242043506090680B4C204041
:10122000D1E902542C434D7944EA450420439060AF
:10123000D06A20F470000C7C641EE4B2234340EAC0
:101240000350D06230BD0000FFFEF0FFFDF7F1FF5C
:10125000F0B504460D4600200021092D11DDE0689F
:10126000A5F10A0606EB4607072606FA07F18843AA
:10127000A5F10A0606EB460603FA06F10843E0600C
:101280000CE0206905EB4507072606FA07F18843BD
:1012900005EB450603FA06F108432061072A0FDA39
:1012A000606B561E06EB86071F2606FA07F1884379
:1012B000561E06EB860605FA06F10843606322E037
:1012C0000D2A0FDA206BD61F06EB86071F2606FABB
:1012D00007F18843D61F06EB860605FA06F1084398
:1012E000206310E0E06AA2F10D0606EB86071F26D8
:1012F00006FA07F18843A2F10D0606EB860605FA09
:1013000006F10843E062F0BD816841F008018160A8
:101310007047816841F004018160704700BFFEE7BB
:1013200010B500240021164800F044F8042000F015
:1013300033F8022000F030F800BF0EE0114830F81A
:1013400014000004104941F824000E4830F814003D
:101350000E4921F81400601C84B2FF2CEEDD002041
:101360000B4981F8FA004FF4807207490948FEF7EB
:10137000FBFE00F099FC0121014800F01BF810BDB4
:101380000800024084020020F407002084040020AA
:10139000E8060020F40B002000F0805111B1034951
:1013A000086001E002494860704700000404024000
:1013B0000000024021B1026842F00102026004E034
:1013C00002684FF6FE731A400260704701684FF6DC
:1013D000FE72114001600021016041608160C160C6
:1013E0004B49884208D14A490839496841F00F0100
:1013F000474A083A51608AE045491431884208D189
:1014000043490839496841F0F001414A083A5160BE
:101410007DE03F492831884208D13D490839496873
:1014200041F470613A4A083A516070E038493C3101
:10143000884208D136490839496841F47041344A34
:10144000083A516063E032495031884208D130494E
:101450000839496841F470212D4A083A516056E034
:101460002B496431884208D129490839496841F437
:101470007001274A083A516049E02549783188428D
:1014800008D123490839496841F07061204A083A77
:1014900051603CE01F49884206D1011F096841F0B4
:1014A0000F01021F116032E01A491431884208D13D
:1014B0001849091F096841F0F001164A121F11600E
:1014C00025E014492831884208D11249091F0968CA
:1014D00041F470610F4A121F116018E00D493C3150
:1014E000884208D10B49091F096841F47041094A33
:1014F000121F11600BE007495031884207D105499E
:10150000091F096841F47021024A121F11607047D7
:1015100008000240080402401AB103680B4303604C
:1015200002E003688B430360704710B50022026835
:1015300047F6F0739A430C6A8B6823430C69234384
:101540004C6923438C692343CC6923434C6A23436E
:101550008C6A23431A430260CB6843600B68836044
:101560004B68C36010BD704708B532480078082842
:101570005DD2DFE800F0040F1A25303B46512EA063
:101580004EF67D734FF4784214210090102000F045
:10159000F9FB4DE02BA04EF67D734FF478421421F9
:1015A0000090102000F0EEFB42E029A04EF67D7383
:1015B0004FF4784214210090102000F0E3FB37E054
:1015C00026A04EF67D734FF478421421009010202F
:1015D00000F0D8FB2CE023A04EF67D734FF4784248
:1015E00014210090102000F0CDFB21E01FA04EF64A
:1015F0007D734FF4784214210090102000F0C2FB5C
:1016000016E01DA04EF67D734FF478421421009031
:10161000102000F0B7FB0BE01AA04EF67D734FF4DC
:10162000784214210090102000F0ACFB00E000BFD5
:1016300000BF08BD03000020485A3130302D32353C
:1016400030000000485A3235302D3530300000006F
:10165000485A3530302D313030300000485A316B27
:101660002D326B00485A326B2D356B00485A356B62
:101670002D31306B00000000485A31306B2D313075
:10168000306B0000485A3130306B2D314D00000076
:1016900010B52B48007801281DD12A48007818B9C8
:1016A0004EF67D7000F09AFD00F0CEF9012025493C
:1016B000087000202449087024480078012807D1C8
:1016C0000021234801F09DFA0121880701F099FAD1
:1016D00000201E4908701F48007802280BD11E48C0
:1016E000007818B94EF67D7000F078FD01201A4997
:1016F000087000F0A5F81748007801281FD112489B
:10170000007818B94EF67D7000F068FD0F4800783B
:1017100040B901210E4801F074FA00214FF08040D9
:1017200001F06FFA01200949087000F017F8012054
:10173000054908700020034908700749087010BD6A
:10174000010000206A0200206B02002068020020D5
:10175000002C0140020000206902002010B59AB060
:101760002B48006802F070F802F0D8FB2948007896
:10177000D0B929A04EF67D730022282100901020B8
:1017800000F000FB26A04EF67D730022142100908D
:10179000102000F0F7FA24A04EF67D7300223C21C1
:1017A0000090102000F0EEFA214822A1026801A862
:1017B00001F09CFB01A84EF67D73002214210090DD
:1017C000382000F0DFFA1C480068FFF780F9044673
:1017D000224618A101A801F089FB01A84EF67D73ED
:1017E000002228210090382000F0CCFA134802781B
:1017F00010A101A801F07AFB01A84EF67D7300222A
:101800003C210090382000F0BDFA1AB010BD000055
:10181000A80000206B0200205643433A000000005D
:10182000467265713A000000636E743A0000000071
:10183000AC00002025640000B80000200400002057
:1018400010B50C480068FFF742F90B49088002F018
:101850008DFA0A48006801F0F7FF02F05FFB0848C4
:101860000078022805D1044801880648006800F085
:101870000BF810BDB80000206E020020A800002068
:1018800002000020AC0000202DE9F04F87B0814617
:101890000E4600240025002700200690059063498D
:1018A000D1F80001FFF701F903906148B0FBF9F0AE
:1018B0000190FFF7FAF802900399FEF7CEFF8346F6
:1018C0005C49FEF798FF8246FFF71AF900F0FF081F
:1018D0005649B1F8FC00FFF7E8F8B24606EBDA71BA
:1018E00002904810FFF7D8F801900299FEF7B5FF73
:1018F00051490390FEF77FFF8346FFF701F9C0B21D
:1019000004904046FFF7D1F8824651464B48FEF717
:10191000A4FF0590012583E0012D04D14348D0F8B0
:10192000040100F10E0474E005FB08F10E31081B00
:10193000FFF7B2F802900599FEF75DFF8346FFF7C7
:10194000C6F83F4951F820A05046FFF7A5F83D4999
:101950000390FEF782FF06900498FFF7A6F8039025
:101960000699FEF748FF8346FFF7B1F88246FFF776
:1019700093F80690611CCAB2E0B2FF23002101F087
:101980003DFF2A49D1F8040102F098FA7230A042D2
:1019900000DA43E0A4F10E00C11700EB9171891049
:1019A000A0EB810121B9A0B22822402100F0F4FA75
:1019B000A4F10E00142190FBF1F201FB120048B9D2
:1019C000182705E0B9B2A0B2142200F0E5FA3F1DD5
:1019D000682FF7DB1549D1F80801FFF75DF8039090
:1019E0004FF085400699FEF7AEFE02900399FEF790
:1019F000AAFE8346FFF784F81FFA80FA0B49B1F874
:101A00000411214488B24FF47842514600F0C4FAE0
:101A1000641C05FB08F00E30A04285DC00BF6D1C85
:101A2000332DFFF679AF07B0BDE8F08FE806002050
:101A300040420F000000A041000050410000C84299
:101A4000D800002000007A4430B59BB001F0A6FF1A
:101A50001F48007888B91FA04EF67D73002214211C
:101A60000090102000F08EF91CA04EF67D7300222D
:101A700028210090102000F085F91A480068FFF72F
:101A800053F8044622460B4617A102A801F02EFA8D
:101A900002A84EF67D73002214210090382000F039
:101AA00071F913480068FFF73FF8044622460B46D9
:101AB00010A102A801F01AFA02A84EF67D730022C6
:101AC00028210090402000F05DF91BB030BD0000DF
:101AD0006A020020447574793A0000005769647402
:101AE000683A0000D0000020252E32660000000079
:101AF000CC000020252E3366000000002DE9F041C7
:101B0000024600250026002000230024002791F82B
:101B100003C00CF00F0591F803C00CF0100CBCF1E1
:101B2000000F03D091F802C04CEA050591F800C0FF
:101B3000BCF1000F31D0146800202BE04FF0010CF5
:101B40000CFA00F3B1F800C00CEA03069E4220D163
:101B500083004FF00F0C0CFA03F7BC4305FA03FCAB
:101B60004CEA040491F803C0BCF1280F06D14FF0F1
:101B7000010C0CFA00FCC2F814C00AE091F803C092
:101B8000BCF1480F05D14FF0010C0CFA00FCC2F873
:101B900010C0401C0828D1D31460B1F800C0BCF1BB
:101BA000FF0F34DD546800202EE000F1080C4FF0E8
:101BB000010808FA0CF3B1F800C00CEA03069E42D3
:101BC00021D183004FF00F0C0CFA03F7BC4305FA48
:101BD00003FC4CEA040491F803C0BCF1280F05D1C2
:101BE00000F1080C08FA0CF8C2F8148091F803C050
:101BF000BCF1480F07D100F1080C4FF0010808FABA
:101C00000CF8C2F81080401C0828CED35460BDE800
:101C1000F0810000F0B50A460023002400210025D1
:101C200000F00046B6F1004F02D11D4EF16901E00F
:101C30001B4E7168C0F3034583B200F44016B6F53D
:101C4000401F08D121F07061154E766826F070664D
:101C5000134F7E6012E000F48016B6F5801F06D1A7
:101C6000032606FA05F4A14341F0706106E0460D33
:101C7000360103FA06F6B14341F0706122B1460D18
:101C8000360103FA06F6314300F00046B6F1004F84
:101C900002D1034EF16101E0014E7160F0BD000020
:101CA00000000140016170472DE9F04F89B0002428
:101CB0005DE0314830F824000FFA80F92E4850F8E2
:101CC00024004FEA204A4846FEF7E6FE80464FF0E1
:101CD0008741FEF790FD07464FF08E41FEF7BDFDB0
:101CE00005465046FEF7D8FE80464FF08741FEF786
:101CF00082FD07464FF08E41FEF7AFFD06463146A6
:101D00003046FEF778FD294602902846FEF773FD1F
:101D100001900299FEF717FD0390FEF705FFCDE94C
:101D2000040102F0D4F80022144BCDE90601FEF7BD
:101D300044FE0746FEF70BFF83465CB94FF08E4129
:101D40005846FEF758FD0746FEF7DAFE0C4941F803
:101D500024000AE04FF08F415846FEF74CFD07463D
:101D6000FEF7CEFE064941F82400601C84B2802CA8
:101D70009FDB09B0BDE8F08FF40B0020000070403D
:101D8000F40D00202DE9F84F0746884693469A4601
:101D9000DDF828900097B3E099F8000080283DDA3C
:101DA00099F800600D2E05D1009F08F110001FFA70
:101DB00080F830E0202E03DDA6F1200086B200E09E
:101DC0000026002422E000251CE004EB0610504908
:101DD000085C80212941084040B108EB040291B21F
:101DE0007A1990B25A4600F0D7F809E0D34507D0E7
:101DF00008EB040291B27A1990B2524600F0CCF886
:101E0000681CC5B2082DE0DB601CC4B2102CDADB04
:101E100007F1080087B209F1010971E0002668E0C6
:101E200006EB06103B4911F8100099F800108842A3
:101E30005DD106EB0610374901EB4000407899F878
:101E40000110884253D100244FE0002520E006EB2A
:101E50000610304901EB4000801C10F8141080205F
:101E60002841014041B108EB040291B27A1990B2C5
:101E70005A4600F091F809E0D34507D008EB040278
:101E800091B27A1990B2524600F086F8681CC5B239
:101E9000082DDCDB002524E006EB06101D4901EBD4
:101EA0004000801C012101EB4401405C802129415C
:101EB000084048B108EB040291B27A19083290B296
:101EC0005A4600F069F80AE0D34508D008EB04024E
:101ED00091B27A19083290B2524600F05DF8681C4F
:101EE000C5B2082DD8DB601CC4B2102CADDB701C51
:101EF00086B2322E94DB09F1020907F1100087B295
:101F000099F8000000287FF447AFBDE8F88F000083
:101F1000F83F00086A4D00082DE9F05F0746884643
:101F200092469946002531E000242BE019490A9891
:101F300001EBC01000EB850010F804B000261DE096
:101F40008020304100EA0B0050B108EB050291B24D
:101F500007EB4402324490B2524600F01DF80BE009
:101F6000CA4509D008EB050291B207EB440232449E
:101F700090B24A4600F010F8701CC6B2082EDFDBA3
:101F8000601CC4B2042CD1DB681CC5B2202DCBDB95
:101F9000BDE8F09FE945000870B504460D461646B9
:101FA000681C83B2601C82B22946204600F052FAB7
:101FB000304600F0FBF870BD00BFFEE70146490661
:101FC000084A926942F00102064B9A61064A526839
:101FD00022F0E062044B5A601A4652680A435A6083
:101FE00070470000001002400000014010B51E487C
:101FF000806940F004001C4988610846806940F00F
:10200000100088610120FFF7D9FF1848006820F010
:102010000F00164908600846006840F00800086094
:10202000081D006820F07040091D0860084600681F
:1020300040F0004008600D480C30006840F400405B
:102040000A490C3108600A48006820F47000084909
:1020500008600846006840F4000008600846C06850
:1020600040F02000C86010BD001002400008014090
:102070000010014010B5044614B101201B4908703E
:102080001A48007808B31A48006838B1194800683F
:1020900020B118483C380068012816D1012001F011
:1020A00057FC0020114908701148006808B9012048
:1020B00010BD1048006808B90220F9E70D483C3807
:1020C0000068012810D10320F2E7094800680128C0
:1020D0000AD108480068012806D106483C38006843
:1020E00010B90120014908700020E1E778020020C2
:1020F000140122423C01214208B50121084600F0AA
:1021000065FA01212448FFF785FD01211C2000F01C
:102110005DFA0121242000F059FA4FF41860ADF85F
:10212000000003208DF8020010208DF8030069469E
:102130001A48FFF7E3FC4FF4E060ADF8000003201D
:102140008DF8020010208DF8030069461448FFF74F
:10215000D5FC0121242000F039FA4FF48070ADF84D
:10216000000010208DF8030003208DF8020069465E
:102170000C48FFF7C3FC4FF480710A48FFF792FD4B
:102180000420ADF8000069460748FFF7B7FC0421BA
:102190000548FFF787FD08BD00023000000C014034
:1021A00000100140000801400014014010B5044631
:1021B0004FF48070084908608020091F08602012D1
:1021C00000F014FAE0B200F011FA4FF48070024906
:1021D000091F086010BD0000140C014070B50646D0
:1021E0009F237F220021084600F034F92C2000F0C4
:1021F00071F9002408E0002503E03046FFF7D6FF20
:102200006D1CA02DF9D3641C802CF4D370BD10B5C7
:10221000FFF772FF00F00CF9112000F05BF9782055
:1022200001F070FBB12000F055F9012000F03EF9FB
:102230002C2000F03BF92D2000F038F9B22000F0FE
:1022400049F9012000F032F92C2000F02FF92D205F
:1022500000F02CF9B32000F03DF9012000F026F940
:102260002C2000F023F92D2000F020F9012000F0AF
:102270001DF92C2000F01AF92D2000F017F9B420D8
:1022800000F028F9072000F011F9C02000F022F931
:10229000A22000F00BF9022000F008F9842000F0E1
:1022A00005F9C12000F016F9C52000F0FFF8C220A2
:1022B00000F010F90A2000F0F9F8002000F0F6F81C
:1022C000C32000F007F98A2000F0F0F82A2000F07F
:1022D000EDF8C42000F0FEF88A2000F0E7F8EE20C8
:1022E00000F0E4F8C52000F0F5F80E2000F0DEF86C
:1022F000362000F0EFF8C82000F0D8F8E02000F019
:10230000E9F80F2000F0D2F81A2000F0CFF80F20E3
:1023100000F0CCF8182000F0C9F82F2000F0C6F823
:10232000282000F0C3F8202000F0C0F8222000F0A0
:10233000BDF81F2000F0BAF81B2000F0B7F82320EA
:1023400000F0B4F8372000F0B1F8002000F0AEF84B
:10235000072000F0ABF8022000F0A8F8102000F0F1
:10236000A5F8E12000F0B6F80F2000F09FF81B2040
:1023700000F09CF80F2000F099F8172000F096F874
:10238000332000F093F82C2000F090F8292000F082
:102390008DF82E2000F08AF8302000F087F83020E9
:1023A00000F084F8392000F081F83F2000F07EF83A
:1023B000002000F07BF8072000F078F8032000F000
:1023C00075F8102000F072F82A2000F083F8002041
:1023D00000F06CF8002000F069F8002000F066F8CA
:1023E0007F2000F063F82B2000F074F8002000F04C
:1023F0005DF8002000F05AF8002000F057F89F2008
:1024000000F054F8F02000F065F8012000F04EF8DC
:10241000F62000F05FF8002000F048F83A2000F0C5
:1024200059F8052000F042F8292000F053F810BDBB
:1024300010B54FF4806006494861642001F062FAEB
:102440004FF4806002490861322001F05BFA10BD50
:1024500000100140F0B504460D4616461F462A20DE
:1024600000F038F8002000F021F8A11CC8B200F0FC
:102470001DF8002000F01AF8B11CC8B200F016F8E0
:102480002B2000F027F8002000F010F8691CC8B2DB
:1024900000F00CF8002000F009F8791CC8B200F038
:1024A00005F82C2000F016F8F0BD000010B5044629
:1024B0004FF48070064908608020091F086020469C
:1024C00000F094F84FF480700149091F086010BDB6
:1024D000140C014010B504464FF4807006490860A2
:1024E00080200860204600F081F84FF48070024997
:1024F000091F086010BD0000140C014000BFFEE77A
:102500007047000070B5002100230F22C47804B387
:10251000154C246804F4E064C4F5E064210AC1F1B8
:102520000403CA40447804FA03F184781440214338
:1025300009010E4C0678A155047804F01F0501240A
:10254000AC4005786D11AD0005F1E025C5F80041FE
:1025500009E0047804F01F050124AC40044D06781E
:10256000761145F8264070BD0CED00E000E400E077
:1025700080E100E002490143024A11607047000017
:102580000000FA050CED00E07047000029B1064A92
:1025900052690243044B5A6104E0034A5269824380
:1025A000014B5A61704700000010024029B1064AF1
:1025B000D2690243044BDA6104E0034AD2698243E0
:1025C000014BDA61704700000010024029B1064A51
:1025D00092690243044B9A6104E0034A9269824380
:1025E000014B9A6170470000001002400021082151
:1025F00014E000F0800222B14FF40072094B1A611E
:1026000003E04FF40072074B5A614FF48072054BA0
:102610005A611A614206100E4A1ED1B20029E8DC46
:102620007047000000100140704710B500F002F83C
:1026300010BD00000CB500200190009033480068E8
:1026400040F480303149086000BF3048006800F431
:10265000003000900198401C0190009818B9019832
:10266000B0F5A06FF1D12948006800F4003010B136
:102670000120009001E0002000900098012843D143
:102680002348006840F010002149086008460068AF
:1026900020F0030008600846006840F0020008606F
:1026A0001A4840681949486008464068486008462A
:1026B000406840F4806048600846406820F47C1020
:1026C00048600846406840F4E810486008460068E2
:1026D00040F08070086000BF0C48006800F0007097
:1026E0000028F9D00948406820F0030007494860F5
:1026F0000846406840F00200486000BF0348406858
:1027000000F00C000828F9D10CBD000000100240B8
:1027100000200240042808D14FF0E021096941F06F
:1027200004014FF0E022116107E04FF0E021096958
:1027300021F004014FF0E022116170477047000062
:1027400010B504466FF00400FFF7E4FFE11704EB57
:102750005171C1F3C701074A11701046007800EBB0
:102760004001C1EBC0104FF6FF7101EAC000024901
:10277000088010BD7A0200207C02002010B51348AA
:10278000006840F00100114908600846406810499F
:1027900008400E494860084600680E4908400B4949
:1027A00008600846006820F48020086008464068F9
:1027B00020F4FE0048604FF41F008860FFF735FFEB
:1027C0004FF000600449086010BD00000010024096
:1027D0000000FFF8FFFFF6FE08ED00E0F0B50C4644
:1027E000154600220021068C4FF6FE773E400684F7
:1027F000028B018C4FF60C7632407E1C06EA0316E3
:102800002E433243104EB0420ED0104EB0420BD089
:10281000B0F1804F08D00E4EB04205D00D4EB04200
:1028200002D00D4EB04206D14FF6FD76314044F055
:102830000106314305E04FF6F576314044F00106DC
:10284000314302830184F0BD002C0140003401407B
:102850000004004000080040000C0040F0B50C46A9
:102860001546002200210026078C4FF6EF7C07EA70
:102870000C070784028B018C4FF6FF7707EA0416DA
:1028800040F6FF473A404FF6FF7707EA03373A43EF
:102890004FF6FF7707EA05273A43114FB8420ED0AB
:1028A000104FB8420BD0B0F1804F08D00E4FB84255
:1028B00005D00E4FB84202D00D4FB84206D14FF6A8
:1028C000DF77394046F01007394305E04FF65F7770
:1028D000394044F01007394302830184F0BD000001
:1028E000002C01400034014000040040000800407A
:1028F000000C0040F0B50C461546002200210026D1
:10290000078C4FF6FF6C07EA0C070784828B018C5B
:102910004FF6FF7707EA04264FF60C773A404FF65A
:10292000FF7707EA03172F433A43114FB8420ED0FF
:10293000104FB8420BD0B0F1804F08D00E4FB842C4
:1029400005D00E4FB84202D00D4FB84206D14FF617
:10295000FF57394046F48077394305E04FF2FF577F
:10296000394044F48077394382830184F0BD00000C
:10297000002C0140003401400004004000080040E9
:10298000000C0040F0B50C46154600220021002640
:10299000078C4EF6FF7C07EA0C070784828B018CBC
:1029A0004FF6FF7707EA043640F6FF473A404FF606
:1029B000FF7707EA05273A434FF6FF7707EA033721
:1029C0003A43114FB8420ED0104FB8420BD0B0F17D
:1029D000804F08D00E4FB84205D00E4FB84202D0FB
:1029E0000D4FB84206D14DF6FF77394046F4805777
:1029F000394305E047F6FF57394044F480573943DF
:102A000082830184F0BD0000002C014000340140AD
:102A10000004004000080040000C004010B588B0E1
:102A200004460121C802FFF7D1FD01210420FFF770
:102A3000CDFD4FF40070ADF8000003208DF80200CA
:102A400018208DF8030069461748FFF757F805A8C6
:102A500000F040FA2088ADF818006088ADF8140046
:102A60000020ADF81A00ADF8160005A90F4800F0D7
:102A7000DFF96020ADF804000120ADF806004FF446
:102A8000FA50ADF80A000220ADF80C0001A9074881
:102A900000F044F90121054800F0BFF80021034887
:102AA00000F0AFF808B010BD00080140002C014054
:102AB00000B589B001210420FFF788FD01210846F7
:102AC000FFF774FD0420ADF820008DF823000320EB
:102AD0008DF8220008A91F48FFF710F80020ADF874
:102AE0001A00ADF816004FF6FF70ADF81800472039
:102AF000ADF8140005A94FF0804000F099F90820C6
:102B0000ADF808000020ADF81000ADF80A00ADF8EF
:102B10000E000220ADF80C0002A9400700F09EF85C
:102B200001220821C80600F0EFF81C208DF80400EF
:102B300001208DF8070000208DF8050001208DF898
:102B4000060001A8FFF7DEFC0121880700F059F814
:102B500009B000BD0008014010B50821C80600F00A
:102B60006BF800283BD02048007801280ED1800760
:102B7000808F1E49088000214FF0804000F01AF934
:102B800019480078401C1849087028E01648007859
:102B9000022811D14007808F1549088000214FF08D
:102BA000804000F007F900200F49087000214FF025
:102BB000804000F00EF912E04FF08040808F0D4908
:102BC00008800221480700F0F5F807480078401C0B
:102BD0000549087008480088401C074908800821FA
:102BE000C80600F00BF810BDBC000020BE0000209D
:102BF000C2000020C0000020C4000020CA4302829E
:102C0000704721B1028842F00102028004E002888C
:102C10004FF6FE731A400280704731B1B0F844207D
:102C200042F40042A0F8442005E0B0F84420C2F38A
:102C30000E02A0F84420704730B502460020002361
:102C40000024158A05EA0103958905EA010413B1F8
:102C50000CB1012000E0002030BD000070B5054639
:102C60000C46244885420ED0234885420BD0B5F14E
:102C7000804F08D02148854205D02148854202D0A6
:102C80002048854200D100E000BF208850B9238948
:102C9000A28861882846FFF7A1FDE188284600F058
:102CA0009AF825E0208804280AD12389A28861881F
:102CB0002846FFF7D3FDE188284600F095F817E095
:102CC000208808280AD12389A28861882846FFF72E
:102CD00011FEE188284600F094F809E02389A288D3
:102CE00061882846FFF74EFEE188284600F092F8FA
:102CF00070BD0000002C0140003401400004004081
:102D000000080040000C00401AB183890B43838106
:102D100002E083898B4383817047000070B50024F3
:102D200000220023058C4FF6FE7635400584028C88
:102D30008388048B4FF68F752C40B51E2C400D8870
:102D40002C43751E2A400D892A434D882A43144D71
:102D5000A8420BD0134DA84208D0134DA84205D06D
:102D6000124DA84202D0124DA84213D14FF6F7756A
:102D70002A404D892A434FF6FB752A408D882A4305
:102D80004FF6FF652B404FF6FF552B408D892B43A7
:102D9000CD892B4383800483CD888586028470BDD2
:102DA000002C01400034014000400140004401403B
:102DB000004801400A460021018C4FF6FF5319409C
:102DC0004FF6FF7303EA022319430184704781869B
:102DD000704781847047028B4FF6F3731A40028369
:102DE000028B0A4302837047028B4FF2FF331A4073
:102DF0000283028B4FF6FF7303EA01231A43028317
:102E00007047828B4FF6F3731A408283828B0A439A
:102E100082837047828B4FF2FF331A408283828B0A
:102E20004FF6FF7303EA01231A43828370470000C1
:102E3000002202881D4B98420ED01D4B98420BD0A9
:102E4000B0F1804F08D01B4B984205D01A4B9842E6
:102E500002D01A4B984204D14FF68F731A404B8818
:102E60001A43174B984207D0164B984204D04FF69E
:102E7000FF431A40CB881A4302808B8883850B88D6
:102E800003850A4B98420BD0094B984208D00E4B51
:102E9000984205D00D4B984202D00D4B984201D17B
:102EA0000B7A03860123838270470000002C0140C7
:102EB000003401400004004000080040000C0040C5
:102EC0000010004000140040004001400044014058
:102ED000004801404FF6FF71818000210180C180D0
:102EE00041800172704700BFFEE700000FB4084B3D
:102EF00010B504A902AA039800F0E4F8044602A958
:102F0000002000F076FC204610BC5DF814FB0000A9
:102F1000F337000802E008C8121F08C1002AFAD1DE
:102F200070477047002001E001C1121F002AFBD149
:102F300070470000014908607047000080020020CF
:102F40002DE9FF5F82B00021DDE90430020DDDF8DC
:102F500040B0034318D044F61050A2F2FF3242436F
:102F60001514119801281FD0A5EB0B00401C5FEA37
:102F7000000A4FF000064E4FDFF83891B046504639
:102F800015D5CAF1000413E0119801244AA30128C1
:102F900001D16FEA0B010298119AC0E90031C0E932
:102FA000024206B0BDE8F09FCBF10000DFE7044627
:102FB0000021404A491842EB0450CDE9001012E0CC
:102FC000E00707D032463B4640464946FDF783FCC2
:102FD0008046894632463B4610461946FDF77BFC43
:102FE00006460F466410002CEAD1DDE90401DDE954
:102FF0000023BAF1000F06DAFDF76DFC42464B469E
:10300000FDF769FC05E0FDF7D8FC42464B46FDF7AD
:10301000D4FC04460E460022284BFDF79FFF03D840
:103020004FF0FF30014607E00022254B2046314695
:10303000FDF784FEFDF77AFF102409E0002C0ADB7F
:103040000A220023FDF7B5FD039B30321A55641E9A
:1030500050EA0102F2D1641C039AC4F11103144432
:10306000119A012A03D0012208430DD10AE0084336
:1030700004D000204FF0110B119072E7A3EB0B0569
:103080006D1E0DE05B4504DD4FF0000205F101050A
:1030900004E003DA4FF00002A5F10105002AECD0AC
:1030A00002981199C0E90231C0E9004579E70000B2
:1030B000000014400000F03F300000000000F0432A
:1030C0000000E03F2DE9FF4F95B09B46894606463C
:1030D00000250FE2252877D100242746F84A012150
:1030E000059400E0044316F8013F203B01FA03F089
:1030F0001042F7D130782A2811D06FF02F033078A2
:10310000A0F13002092A16D8059A44F0020402EB15
:10311000820203EB42021044761C0590EFE759F857
:10312000042B0592002A03DA504244F4005405901F
:1031300044F00204761C30782E2816D116F8010FC0
:1031400044F004042A280DD06FF02F023078A0F14B
:103150003003092B09D807EB870302EB4303C71899
:10316000761CF3E759F8047B761C30786C280FD076
:1031700006DC4C2817D068280DD06A2814D104E04A
:10318000742810D07A280FD10DE044F400140AE01E
:1031900044F4801401E044F440147278824202D175
:1031A00004F58014761C761C307866280BD013DC6E
:1031B000582877D009DC002875D04528F6D0462855
:1031C000F4D047281AD19DE118E0632835D064284F
:1031D00079D0652812D195E1702873D008DC672872
:1031E000F1D069286FD06E280DD06F2806D1B5E0D8
:1031F00073282CD0752875D0782874D05A46179922
:1032000090476D1C75E1C4F30250022809D00328D1
:103210000DD0D9F8001004280DD00D6009F1040973
:1032200067E1D9F80010EA17C1E90052F6E7D9F8CA
:1032300000100D80F2E70D70F0E719F8041B8DF80F
:10324000001000208DF80100EA46012003E059F843
:1032500004AB4FF0FF3061074FF0000102D40DE0E6
:1032600008F101018846B9420FDA8045F8DB1AF807
:1032700008100029F4D108E008F1010188468142D4
:10328000FADB1AF808100029F6D105985B46A0EB86
:10329000080721463846179A00F094FA284400EBB4
:1032A000080507E04DE029E10DE01AF8010B5A4648
:1032B00017999047B8F10108F7D25B462146384686
:1032C000179A13E142E00A220092C4F302524FF02F
:1032D000000A022A08D059F804CB032A4FEAEC71FD
:1032E0000AD00DE029E02AE009F1070121F00702E8
:1032F000F2E802C1914609E00FFA8CFC4FEAEC714A
:10330000042A03D14FFA8CFC4FEAEC71002907DA4A
:103310000A460021DCF1000C61EB02012D2202E0E3
:10332000220504D52B228DF80420012203E0E207B8
:1033300001D02022F7E7904659E00A2102E010224E
:103340000DE010214FF0000A00910BE010224FF029
:10335000000A44F004040827009203E008224FF01A
:10336000000A0092C4F30252022A05D059F804CB95
:103370000021032A08D009E009F1070121F0070222
:10338000F2E802C1914605E01FFA8CFC042A01D143
:103390000CF0FF0C4FF00008220728D5702806D04B
:1033A000009B83F0100353EA0A0305D00EE040228D
:1033B0008DF80420012208E05CEA010206D03022E8
:1033C0008DF804208DF8050002229046009B83F0C2
:1033D000080353EA0A030AD15CEA010201D1620739
:1033E00005D530228DF804204FF001087F1E5828A3
:1033F00004D034A003900EA802900DE036A0F9E7A7
:1034000053466046009AFDF7D4FB84460398825CDD
:103410000298401E029002705CEA0100F0D102980E
:1034200006A9081A00F1200A600702D524F48034A6
:1034300000E00127574502DDA7EB0A0000E000206D
:1034400000EB0A01009005984144401A0590E00302
:1034500006D45B462146179A059800F0B3F9054457
:10346000002706E001A85A46C05D179990476D1CD9
:103470007F1C4745F6DBE0030CD55B462146179AD7
:10348000059800F09FF9054404E030205A4617994A
:1034900090476D1C0099481E00900029F5DC08E05B
:1034A000029802995A460078491C02911799904750
:1034B0006D1CBAF10001AAF1010AF1DC65E100001E
:1034C00009280100303132333435363738396162FA
:1034D00063646566000000003031323334353637BE
:1034E00038394142434445460000000000F058F995
:1034F0000544761C307800287FF4ECAD19B02846DE
:10350000BDE8F08F620700D4062709F1070222F018
:10351000070CFCE80223E14603F000485FEA080CD0
:1035200002D00FF2702C0DE05FEA045C02D50FF2BE
:10353000682C07E05FEAC47C02D00FF2602C01E047
:10354000AFF2700C4FF0FF3823F00043CDF850C0BD
:1035500065280CD006DC452809D046281DD0472810
:103560003DD13DE0662818D067287ED138E00021A3
:10357000112F01DB112000E0781CCDE9000106A924
:103580000EA8FFF7DDFCDDE90F010E9A0391002183
:10359000009207F1010A04914DE04FF000400097BE
:1035A000CDE9011006A90EA8FFF7CAFCDDE90F025C
:1035B00003920E9B11990022DDF80CA00093049257
:1035C00011B9791C00EB010AB7EB0A0004D4C0F171
:1035D000FF3007F1010A0490AAEB0700019044E0D4
:1035E000012F00DA01270021112F01DD112000E059
:1035F0003846CDE9000106A90EA8FFF7A1FCDDE9D8
:103600000F010E9A0391002104910092BA462107FE
:103610000CD40399514500DA8A46BAF1010F05DD51
:10362000009AAAF10101515C302908D0B84202DAAF
:1036300010F1040F06DA0121CDE9011015E0AAF11D
:103640000101E9E7002805DC049901440491AAEB93
:10365000000102E0411C514500DD8A460499401AF0
:10366000401C01904FF000400290200704D40198C4
:10367000504501DBCDF8048000208DF84F00029802
:103680000DF14F07B0F1004F25D02B200E9002987E
:103690004FF0020800280CDA404202902D200E90D4
:1036A00007E00A210298FDF76EFA3031029007F820
:1036B000011DB8F10001A8F10108F2DC0298002810
:1036C000EFD1791E0E980870307800F0200040F09D
:1036D000450007F8020D12A8C01B00F10708149856
:1036E000007800B1012000EB0A01019801EBE071C4
:1036F00005984144401A401E0590E00306D45B46FD
:103700002146179A059800F05DF805441498007852
:1037100018B15A46179990476D1CE00324D55B46B3
:103720002146179A059800F04DF805441CE00498CE
:10373000002807DBDDE90301884203DD0098405CD7
:10374000179901E0179930205A469047049805F1DF
:103750000105401C04900198401E019004D12E20C8
:103760005A46179990476D1CBAF10001AAF1010A57
:10377000DDDC05E017F8010B5A46179990476D1CE0
:10378000B8F10001A8F10108F4DC5B462146179A64
:103790000598ABE62D0000002B0000002000000083
:1037A0002DE9F041044600251E461746880404D43E
:1037B00005E039462020B0476D1C641EF9D5284627
:1037C000BDE8F0812DE9F041044600251E469046F3
:1037D000C80301D5302700E02027880404D505E080
:1037E00041463846B0476D1C641EF9D52846BDE8F1
:1037F000F0810A68531C0B60107070472DE9F0438C
:1038000004460D4616461F463B463246294620468C
:10381000FEF720FE2C20FEF75DFEA0460FE0A94635
:1038200007E04EF67D70FEF7C1FC09F1010000F0E3
:10383000FF09B945F5DB08F1010000F0FF08B045CC
:10384000EDDBBDE8F08300002DE9F04104460025E2
:10385000002600270A212548FFF7B9FA02250FE0C4
:10386000234850F8250023490988884206DD20486E
:1038700030F825001F4908801F480580681C85B264
:10388000802DEDDB2088401C00026188491C4843E4
:103890001949098890FBF1F0184991FBF0F0E060BC
:1038A0000A20B7FBF0F020616421E068B0FBF1F082
:1038B000A1680844E168884201D9701CC6B264213D
:1038C000E068B0FBF1F06168081AE168884201D253
:1038D000701CC6B2022E02D10949E06808600026B9
:1038E0000020044908803046BDE8F081002C0140EA
:1038F000F40D0020B0000020B200002000A24A0415
:10390000AC0000200146114A12884A434FF0E023E0
:103910005A6100229A611A46126942F001021A6144
:1039200000BF4FF0E022106900F001021AB100F46C
:103930008032002AF5D04FF0E022126922F0010215
:103940004FF0E0231A6100229A6170477C02002048
:103950000146114A12784A434FF0E0235A6100228F
:103960009A611A46126942F001021A6100BF4FF0D3
:10397000E022106900F001021AB100F48032002A3E
:10398000F5D04FF0E022126922F001024FF0E0235F
:103990001A6100229A6170477A0200202DE9F04FE7
:1039A0008DB0002007900690814600248346824611
:1039B000059095490988954A1288881AFDF76CF890
:1039C000074693490988914A1288881AFDF764F8D6
:1039D00080463946FCF741FF06468E49FCF70BFF4F
:1039E0000546FDF774F80A2834DD87490988874AB7
:1039F0001288881AFDF750F8074685490988834AD6
:103A00001288881AFDF748F880463946FCF725FFEA
:103A100006468049FCF7EFFE0546FDF758F85A28A0
:103A200018DA79490988794A1288881AFDF734F832
:103A3000064677490988754A1288881AFDF72CF8D6
:103A400007463146FCF709FF05467249FCF7D3FEED
:103A5000714908606C4800886C490988401A6F49B0
:103A600091FBF0F01FFA80F9B9F1640F05DBB9F5AD
:103A70007A7F02DC0120059001E000200590684873
:103A80000088B0F57A6F0EDD002405E0002065495E
:103A900021F82400601CC4B20A2CF7DB0020604926
:103AA000088061490860059801287DD1BBF1010FAC
:103AB0002BD0002426E05B4800EB84004088A9EB73
:103AC000000008A921F8140008A830F8140040B933
:103AD000544830F82400401C524921F8240009249D
:103AE0000AE008A830F81400484505D14D4800EB1D
:103AF0008400A0F8029007E0092C01D14FF0010BDF
:103B0000601CC4B20A2CD6DB00BFBBF1010F37D159
:103B1000002416E0434800EB84004088A9EB000035
:103B200008A921F8140008A830F8140038B93D4855
:103B300030F82400401C3B4921F824000924601C73
:103B4000C4B20A2CE6DB00243648008807900CE05B
:103B5000344830F824100798814204DA314830F8AC
:103B600024000790A246601CC4B20A2CF0DB2D484A
:103B700000EB8A00A0F8029000202A4921F82A00D0
:103B800000240CE0274830F824100698814204DD18
:103B9000244830F824000690A246601CC4B20A2CC7
:103BA000F0DB0020069000E025E01E4800EB8A00D4
:103BB00040881E49088018480068FCF7B5FFCDE929
:103BC00002011A480088FCF775FF02460B46CDE952
:103BD000000100201649FCF7F0FE0746DDE902234C
:103BE000FCF779FE0546FCF7B2FF12490490FCF79A
:103BF00002FE114908600A480088401C08490880F4
:103C00000DB0BDE8F08F0000C2000020C000002011
:103C1000BE0000200000C842D000002040420F003B
:103C2000C8000020C0060020D4000020C6000020EC
:103C30000000F03F00401C46CC0000204820FEF76A
:103C40007FFD4FF4A060FEF795FCFEF7E0FAFEF76B
:103C5000CDF94FF4FA703D49A1F8FC000020C1F8FD
:103C60000401C1F808010120C1F800014EF67D7081
:103C7000FEF7B4FA1EE04FF4006035490860FDF726
:103C800073FC0020FEF7F6F9324908700846007808
:103C9000032808D130480078401C2F4908704EF6A0
:103CA0007D70FEF79BFA2C480078072802DB07207E
:103CB0002949087027480078022803D02548007851
:103CC0000128D8D12448007800EB8000234901EB7B
:103CD00080002349086008460068FEF79FFEFDF754
:103CE000C3F9FDF709FAFEF7E3FE2EE01948007864
:103CF000012804D002280DD0032819D111E0194859
:103D00000078012805DC00201649087001201649BA
:103D100008700EE001201349087000201249087055
:103D200007E002200F49087000200F49087000E0EA
:103D300000BF00BF0020FEF79DF9064908704FF450
:103D4000006003490860FDF7A3FCCFE7E806002008
:103D5000100C01400000002003000020080000209B
:103D6000A8000020020000200100002038B5002437
:103D70004A4800784A4908704A480078012804D027
:103D800002280FD0032825D117E047480078401CAF
:103D9000454908700020454908704EF67D70FEF7D1
:103DA0001DFA18E042480078401C41490870002084
:103DB000404908703C4908700DE03E480078401CBE
:103DC0003C4908700020394908704EF67D70FEF7B6
:103DD00005FA00E000BF00BF364800783249097894
:103DE000441A334800784EF67D7300221146009045
:103DF0001046FEF791F82E48007858B92B48007805
:103E000040B904EB840040002B49C1F804010120B3
:103E1000264908702648007801280BD123480078ED
:103E200040B904EB840040002349C1F80801012097
:103E30001E4908701E48007802280ED11B480078E1
:103E400058B9012C04D132201B49A1F8FC0004E030
:103E50004FF4FA701849A1F8FC00154800780328BF
:103E600013D11248007880B9012C03D10A201249DD
:103E7000C1F80001022C04D164200F49C1F80001EF
:103E800003E001200C49C1F800010948007804282A
:103E900002DB00200649087038BD00000400002045
:103EA0006C0200200000002072020020730200203B
:103EB0007002002071020020E8060020014600295F
:103EC00000DB00BF002900DA4942C8B270472DE983
:103ED000F04106460F46FCF7D8FF041E0D4618BFFA
:103EE0000120284320F00040C0F17F6000F1E04055
:103EF000C00F0ED0301C18BF0120384320F0004006
:103F0000C0F17F6000F1E040C00F04BF0120FFF767
:103F100011F820462946BDE8F08100002DE9F04166
:103F200088B00024002500BF0026002004900590E2
:103F300006900790009001900290039000BF34E03B
:103F4000002004A921F814002DF81400002522E017
:103F500005EB4410234931F8100004A931F814107E
:103F6000884207DD05EB44101E4931F8100004A912
:103F700021F8140005EB44101A4931F810003DF8FF
:103F80001410884206DA05EB4410164931F8100087
:103F90002DF814006D1C202DDADB04A830F8140075
:103FA0003DF81410401A0644641C082CC8DBF608BF
:103FB00006EB46014800FCF778FD80460A49FCF70D
:103FC0004CFC07460949FCF716FC094908600949F9
:103FD00007480068FCF709FC0549086008B0BDE81F
:103FE000F08100008404002000F07F4500007A4446
:103FF000B80000200040F64400000000000000006F
:104000000000000000000000001010101010101040
:10401000101000001010000000006C6C2424000040
:1040200000000100000000000024242424FE484871
:104030004848FC909090900000103C54929050386A
:1040400014121292547810000000225C94A84810B8
:1040500010242A5254880000000030484850206E36
:1040600054948C888A7400000000303010100000D6
:1040700000000000000000000004081010202020B4
:104080002020201010080400008040202010101074
:104090001010102020408000000000001054381044
:1040A000385410000000000000000010101010FE36
:1040B00010101010000000000000000000000000C0
:1040C000000000001010200000000000000000FEB2
:1040D00000000000000000000000000000000000E0
:1040E0000000000010100000000004040808101078
:1040F000202040408080000000003844828282827C
:10410000828282824438000000001070101010106B
:1041100010101010107C0000000038448282040847
:104120001020408284FC00000000384482020438E1
:1041300004020282443800000000040C14142424F9
:104140004444FE04040E00000000FC808080B8C4DB
:10415000820202828478000000003C428280B8C45F
:10416000828282824438000000007E428204040879
:1041700008081010101000000000384482824438F3
:104180004482828244380000000038448282828265
:10419000463A02824438000000000000101000007F
:1041A00000001010000000000000000010100000CF
:1041B00000000010102000000000000006186080C1
:1041C0006018060000000000000000000000FE0073
:1041D00000FE00000000000000000000C0300C02E3
:1041E0000C30C00000000000003844828202040845
:1041F000101010001010000000003844829AAAAA83
:10420000AAAAAA9680423C00000010101028282874
:1042100044447C4444EE00000000FC424242427CA4
:104220004242424242FC000000003C4482808080C6
:1042300080808282443800000000F84442424242BA
:104240004242424244F800000000FC444240447CA8
:104250004440404244FC00000000FC444240447C96
:104260004440404040F000000000344C8280808098
:104270008E8484844C3400000000EE444444447C2A
:104280004444444444EE000000007C101010101020
:1042900010101010107C000000003E0808080808EC
:1042A00008080888887000000000EE444848506004
:1042B0005048484444EE00000000E0404040404088
:1042C0004040404244FC00000000C6446C6C6C540A
:1042D0005454444444EE00000000CE4464646454EA
:1042E000544C4C4C44E400000000384482828282EA
:1042F00082828282443800000000F84442424244F4
:104300007840404040E000000000384482828282D1
:10431000828282BA443C02000000F048444444488F
:104320007048444444E6000000003C448280403031
:104330000C0202824478000000007C54921010109D
:1043400010101010103800000000EE4444444444A3
:1043500044444444443800000000EE4444444428AB
:1043600028282810101000000000EE445454545423
:1043700054542828282800000000EE44442828101F
:104380001028284444EE00000000EE444428282869
:10439000101010101038000000007E44840808102F
:1043A0002020408284FC0000001C1010101010100F
:1043B0001010101010101C000000EE445454FE5455
:1043C00054542828282800000070101010101010D5
:1043D0001010101010107000003048840000000011
:1043E00000000000000000000000000000000000CD
:1043F000000000000000FE0000402000000000005F
:1044000000000000000000000000000000007884B0
:10441000047C84848C7600000000C04040405864D6
:10442000424242426458000000000000000038444C
:10443000808080804438000000000C040404344C68
:10444000848484844C3600000000000000007884DE
:1044500084FC808084780000000018242020F8204C
:1044600020202020207000000000000000003A44BE
:104470004478807C82827C000000C04040405864C8
:104480004444444444EE000000001010000030108A
:104490001010101010380000000010100000301034
:1044A00010101010109060000000C04040405C48A8
:1044B0005060504844EE0000000030101010101101
:1044C0001010101010390000000000000000ACD2E5
:1044D0009292929292D6000000000000000058E4F0
:1044E0004444444444EE000000000000000038440E
:1044F0008282828244380000000000000000D864FC
:10450000424242645840E000000000000000364C87
:104510008484844C34040E000000000000006C30E1
:10452000202020202070000000000000000078887B
:104530008460188444780000000000202020F820C7
:104540002020202024180000000000000000C642A7
:1045500042424242463A0000000000000000EE44A1
:104560004428282810100000000000000000EE443D
:104570004454542828280000000000000000EE44A5
:104580002810102844EE0000000000000000EE4457
:104590004428281010A0C0000000000000007E4445
:1045A0008810204284FC0000000C101010101060D5
:1045B0001010101010100C0000101010101010101F
:1045C000101010101010100000C020202020201803
:1045D000202020202020C0000000000000000072E9
:1045E0008C000000000000000000000000001FE040
:1045F00000003FF000003FF000001FE000018006D7
:104600000003C00F0003C00F0003C00F0003C00F62
:104610000003C00F0003C00F0003C00F0003C00F52
:104620000003000300000000000000000000000084
:10463000000300030003C00F0003C00F0003C00FFE
:104640000003C00F0003C00F0003C00F0003C00F22
:104650000003C00F0001800600001FE000003FF0D3
:1046600000003FF000001FE000000000000000001C
:10467000000000800000018000000380000007802F
:10468000000007800000078000000780000007800E
:1046900000000780000007800000078000000780FE
:1046A0000000018000000000000000000000000089
:1046B00000000180000007800000078000000780E4
:1046C00000000780000007800000078000000780CE
:1046D00000000780000007800000038000000180C8
:1046E00000000080000000000000000000001FE04B
:1046F00000003FF00000FFF00001FFE000000006B6
:104700000000000F0000000F0000000F0000000F6D
:104710000000000F0000000F0000000F0000000F5D
:1047200000001FE300007FF800007FF800001FE09A
:10473000000300000003C0000003C0000003C0002D
:104740000003C0000003C0000003C0000003C0005D
:104750000003C0000001800000001FF000003FF8CF
:1047600000003FFC00001FFE000000000003FF806F
:104770000001FFC00000FFC000007F8000000018A3
:104780000000003C0000003C0000003C0000003C39
:104790000000003C0000003C0000003C0000003C29
:1047A00000007F8C0001FFE00001FFF000007F802F
:1047B0000000000C0000003C0000003C0000003C39
:1047C0000000003C0000003C0000003C0000003CF9
:1047D0000000003C0000001800007F800000FFC0C7
:1047E0000001FFC00003FF80000000000000000087
:1047F0000002000100030003000380070003C00F54
:104800000003C00F0003C00F0003C00F0003C00F60
:104810000003C00F0003C00F0003C00F0003C00F50
:1048200000031FE300007FF800007FFC00001FE092
:10483000000000030000000F0000000F0000000F48
:104840000000000F0000000F0000000F0000000F2C
:104850000000000F0000000F000000070000000330
:1048600000000001000000000000000000001FFC2C
:1048700000003FF800003FF000001FE00001800052
:104880000003C0000003C0000003C0000003C0001C
:104890000003C0000003C0000003C0000003C0000C
:1048A00000031FE000007FF800007FF800001FE019
:1048B000000000030000000F0000000F0000000FC8
:1048C0000000000F0000000F0000000F0000000FAC
:1048D0000000000F0000000600003FE000007FF035
:1048E0000000FFF00001FFE00000000000001FFCDE
:1048F00000003FF800003FF000001FE000018000D2
:104900000003C0000003C0000003C0000003C0009B
:104910000003C0000003C0000003C0000003C0008B
:1049200000031FE000007FF800007FFC00001FE094
:10493000000300030003C00F0003C00F0003C00FFB
:104940000003C00F0003C00F0003C00F0003C00F1F
:104950000003C00F0001800600001FE000003FF0D0
:1049600000003FF000001FE0000000000007FFE033
:104970000003FFC00001FF880000FF18000000389E
:104980000000007800000078000000780000007847
:104990000000007800000078000000780000007837
:1049A00000000018000000000000000000000000EF
:1049B0000000001800000078000000780000007877
:1049C0000000007800000078000000780000007807
:1049D0000000007800000078000000380000001897
:1049E00000000008000000000000000000001FE0C0
:1049F00000003FF000003FF000001FE000018006D3
:104A00000003C00F0003C00F0003C00F0003C00F5E
:104A10000003C00F0003C00F0003C00F0003C00F4E
:104A200000031FE300007FF800007FFC00001FE090
:104A3000000300030003C00F0003C00F0003C00FFA
:104A40000003C00F0003C00F0003C00F0003C00F1E
:104A50000003C00F0001800600001FE000003FF0CF
:104A600000003FF000001FE00000000000001FE019
:104A700000003FF000003FF000001FE00001800652
:104A80000003C00F0003C00F0003C00F0003C00FDE
:104A90000003C00F0003C00F0003C00F0003C00FCE
:104AA00000031FE300007FF800007FFC00001FE010
:104AB000000000030000000F0000000F0000000FC6
:104AC0000000000F0000000F0000000F0000000FAA
:104AD0000000000F0000000600001FE000003FF093
:104AE00000007FF00000FFE0000000000000000078
:104AF00000000000000000000000000000000000B6
:104B000000000000000000000000000000000000A5
:104B10000000000000000000000000000000000095
:104B20000000000000000000000000000000000085
:104B300000000000000000000000000000007800FD
:104B40000000780000007800000078000000780085
:104B500000007800000000000000000000000000DD
:104B60000000000000000000000000000000000045
:104B70000000000000000000000000000000000035
:104B800000000000000000000000070000000F808F
:104B900000000F8000000F800000070000000000F0
:104BA0000000000000000000000000000000000005
:104BB000000000000000070000000F8000000F80D0
:104BC00000000F800000070000000000000000004F
:104BD00000000000000000000000000000000000D5
:104BE00000000000000000000000000000000000C5
:104BF00000000000000000000007C006000FE006F3
:104C00000000000C00301818003018180030183060
:104C10000030183000301860003008C00007C0C0F5
:104C2000000FE080000000000000000FE000060719
:104C3000C000063018000C3018000C301800183076
:104C40001800303018003030180060000000C00F2D
:104C5000E000C007C00000000000000000000000ED
:104C60000000000000000000000000000000000044
:104C70000000000000000000000000000000000034
:104C8000000700E0000887FC00088E030008980178
:104C90008007180080003000000030000000700025
:104CA0000000600000006000000060000000600084
:104CB00000006000000070000000300000003000C4
:104CC000000038000000180100000C03000007FC81
:104CD000000001F0000000000000000000000000E3
:104CE00000000000000000000000000000000000C4
:104CF00000000000000000000000000000000000B4
:104D000000000000000000000000000000000000A3
:104D10000000000000000000000000000000000093
:104D20000000000000003FF000007FF000007FE086
:104D30000000FFC0000000000000000000000000B4
:104D40000000000000000000000000000000000063
:104D50000000000000000000000000000000000053
:104D600000000000000000000000B5E702000200A3
:104D700002007FF0421042107FF0421042107FF09C
:104D800042000208020801F800000000D7D37FF0BB
:104D900000200040008001000200FFF80200020035
:104DA00002000200020002000E0000000000C8AB7A
:104DB0000100010002800440082010102FE8C10605
:104DC000010001001FF00100010001007FFC000054
:104DD000B6AF004000407C40004001FC0044FE446F
:104DE00020442044208448844484FD04450402284F
:104DF0000410BCBC10201020102013FEFC2010203A
:104E0000102015FC18843088D04810501020105005
:104E100051882606CAF501000120011001107FFC0F
:104E200003800540054009201110210841040102BA
:104E3000010001000100D2BA0080404027F8114073
:104E400001408278424816A81AD0235022204220DE
:104E50004250028800000000BEA73FE020203FE053
:104E600020203FE00000FDF885088508FDF8850852
:104E70008508FDF8850800000000B2E200084F88B0
:104E800028880AA88AA84AA80AA82AA82AA84228DC
:104E9000450884888888103800000000CAD4405033
:104EA000204820400FF80040E040274022402240A8
:104EB00022202A2833A82E18000800000000B3CCB6
:104EC00000001BF0E210221023F0F800200033F065
:104ED00068806080A3F02080208027F80000000018
:104EE000D0F2020001003FF820002FF020202240E5
:104EF00021803FF8208820904080408083800000FF
:104F00000000D1D5200010F87E20444028F87E888B
:104F100048A850A864A848A872A8845018886108B6
:104F200000000000C9AB100010003FE0404080804E
:104F30007FF04210421042107FF0400040084008CD
:104F40003FF800000000CCEE20802FF8208027F0F2
:104F5000F41027F0241027F0241027F03410CFF895
:104F60000220041000000000B3E404000200FFF877
:104F70000800104020207FF00890088008800880FA
:104F800010882088C07800000000CEC40400020011
:104F90000200FFF810401040088008800500020061
:104FA000050008803060C01800000000D7D604005B
:104FB0000200FFF8800880083FC000800100020066
:104FC000FFF80200020002000E0000000000CFD433
:104FD0003FE0202020203FE0202020203FE00880EC
:104FE0004890289028A008800880FFF80000000062
:104FF000CABE00003FE0000000000000FFF8020011
:105000001240122022104208820802000E00000006
:105010000000CDBC7FF84008440847C84848548881
:1050200043084CC8733840884C08430840887FF8D0
:1050300000000000C6AC00802080208020803FF06F
:105040002000200020003FC0204020402040404061
:10505000804000000000B4A520403840484091F056
:105060007D50555055507D5055F054407C40545023
:1050700057F88C0800000000C3FE2220222027F8E9
:10508000FA2027F0241027F03410E7F020802FF8C2
:1050900021402220EC1800000000CAE4408041407A
:1050A000F22044108BE8A000F78824A827A834A891
:1050B000E7A824A8248825B800000000C8EB080051
:1050C00004000400020002000500050008800880BA
:1050D0001040104020204010800800000000C8ABA5
:1050E000020002000500088010402020DFD80200E6
:1050F00002001FC0020002000200FFF800000000D2
:10510000B3CC00001BF0E210221023F0F8002000C6
:1051100033F068806080A3F02080208027F80000B2
:105120000000BCBC208020802080F7F02080208000
:1051300027E03220E2202140208021402220EC186C
:1051400000000000CAF50200024002200200FFF841
:1051500007000A800A8012402220421082080200C2
:10516000020000000000D6A702000200FFF80200C3
:1051700002007FE0102010400880050002000500BA
:1051800018C0E03800000000B3D62080208023F053
:10519000F880208027F828203020E7F820202220DF
:1051A00021202020E0E000000000D7A8020002003B
:1051B0007FF004000400FFF8080010003FE000202A
:1051C00000401C800300008000000000D7A2010006
:1051D0004080200017F0008080804080008017F021
:1051E00010802080208040804FF800000000C5FA29
:1051F000204024402440F448245027602440344078
:10520000E4402440244025482648E43800000000BB
:10521000B7A202002220221044007FF804000800F8
:105220000FE0142024404280810006C0383800007E
:105230000000B3C900A0009000807FF8408040903B
:105240007C90449044A044A0444858A84118820847
:1052500000000000B9A601000100F90023F02110B0
:1052600021102110211021103910C2100210041039
:10527000086000000000D2C60000002000780CE4A6
:105280007904516810307E6019981A3C2FE448E484
:105290000838003000600000D1A10000012001208A
:1052A00003FC62203420042003FC240021B02120D0
:1052B0002220323E18000FE00000D4F10000000070
:1052C00010FC1304110C3DF8703E10D015907CF0CA
:1052D000503E18101BFE023000200000CFEE0000F0
:1052E000000003FE00607C4012FC11041106113620
:1052F00011241F44794400C0009C01860000C4BFF3
:10530000000000000FE03C18200820043E04600468
:1053100060047E046004200C20081FF0018000005F
:10532000B6CC0000080011FC103E3EF82D8C29047C
:10533000490409043E8C50FC10881EC811FC100E54
:105340000000B0B400000040006012FE13023A42B8
:105350007F4410C41BFE3C987190113011A000785E
:10536000004C0000C8B70000004000F878C41F8C53
:10537000313821EC2126413A7DE2272225FA3D26CB
:10538000012401040000B6A80000010001705FFCC8
:10539000700420042FF801001100113821C43100DD
:1053A0003F0063E040380000B3A40000000008188C
:1053B000086008C00B001E00181C7FF01000118050
:1053C00010E01838098E0F000000B0B40000004053
:1053D000006012FE13023A427F4410C41BFE3C9848
:1053E0007190113011A00078004C0000B7B500009A
:1053F000000007F80600240014F8078C04042408B1
:10540000261825F0647C64C220801FC00000BBD831
:10541000000000001FF030182008278C2C4428447E
:1054200028442CC427842004300C1FF8038000007B
:10543000000000000000000000000000000000006C
:10544000000000000000000000000000000000005C
:105450000000B4BF000000000000020100063FC0D1
:105460000C3FE01803001002003336603726203E60
:1054700066301C643018642031FEE03F1FC01C0CF5
:1054800000000C000704003E07F00001C00000000F
:10549000000000000000000000000000C9AB000098
:1054A0000000000001FE0003E3000703000C0300FE
:1054B0001C3F003BFFC03F30600C30200C30200C04
:1054C00010200C10600FFFC0083F0008000008000B
:1054D000600E3FE007FC000000000000000000003C
:1054E000000000000000CCEE0000000000000003FF
:1054F0000000FFE00C07F00C06000CFF803FF0E01E
:105500001FC0600CFE300CCC3004F83004FF2004C7
:10551000C0201FFE603EC06001FFF001FFF0006090
:1055200060004000000000000000000000000000DB
:10553000B3E400000000000000200000300007FF7E
:10554000F03FFFE00300000601800C01800801C06D
:105550001807E00FFE7007E00002060006040004D2
:1055600004000404000C06700C07E00000000000BA
:1055700000000000000000000000B2E20000000097
:10558000000000003039FC301FCC300706B00F0699
:10559000F01907B03137B03136F01F27F00167F04E
:1055A00001E5F001E1F00041F00CF8B03CD830002A
:1055B0008C3000803000000000000000000000007F
:1055C00000000000CAD40000000000000803600CC6
:1055D00003700C0330003FE0003F800801003C01F5
:1055E00080047F80047D800C00800C10C00C10C0F3
:1055F0000C18400C1C600F7E6006703000003000FC
:105600000000000000000000000000000000CEC408
:1056100000000000C00000E00000700001FFE01F7B
:10562000FFC0180100000300000600000E00001C6F
:10563000000E180007300001E00000F00000FC0040
:10564000018F000303C00201E00000000000000021
:105650000000000000000000D7D60000000000009D
:10566000002000003F0031FFE03FC0203800303014
:10567000FE2033C660100200000C00001800001865
:1056800000000C0007FFE03FFFE0000400000C00FA
:10569000000C0000000000000000000000000000FE
:1056A0000000CFD400000000000007FF000F03C07F
:1056B0000C00401FF8601800600800400E01C00791
:1056C000FF000000000184000184001987800F8C16
:1056D000E0078C2000CC0003FFE01FFFC0000000AB
:1056E000000000000000000000000000CABE000032
:1056F000000000000E00001FFFC0007FE00000005F
:10570000000000000000000000003FC03FFFE0007C
:1057100030000030000030000613000C13C00C18DD
:10572000F018180018180000000000000000000029
:10573000000000000000CDBC00000000000007FFDA
:10574000000F03801CC0C019FC6011C66033062026
:1057500033E63036FF30301FF030703030FC3033FD
:105760009F3036002010E060187C400E01C003FF1F
:1057700000003800000000000000000000000000F1
:10578000C6AC000000000000081800180800180847
:1057900000180800180C201FFFF01FF80018000068
:1057A00010000010F8001FFE001E03001003001080
:1057B00003001003001003001802000000000000A6
:1057C00000000000000000000000CFD40000000036
:1057D000000007FF000F03C00C00401FF860180016
:1057E000600800400E01C007FF00000000018400B7
:1057F0000184001987800F8CE0078C2000CC000307
:10580000FFE01FFFC00000000000000000000000DB
:1058100000000000CABE0000000000000E00001FD3
:10582000FFC0007FE000000000000000000000005A
:1058300000003FC03FFFE0003000003000003000BB
:105840000613000C13C00C18F018180018180000EC
:105850000000000000000000000000000000B4A5EF
:105860000000000000000601800FC1801E61803032
:105870004FC020CFE0078D303FC9303379303379C6
:10588000303FFB3037FF203267E03FE3803FE3C02B
:105890003263603267F0304FB0000000000000005B
:1058A0000000000000000000C3FE00000000000037
:1058B0000030C000FFF00C79C00C1F800C7FE03F6F
:1058C000E0600CC0300CFC3004C03007C0301E60FB
:1058D000603C3FC0041C00047FE000FFE00030C0DB
:1058E00000606000000000000000000000000000F8
:1058F0000000CAE40000000000000C03800C0FC090
:10590000081C703F70001F9FC0101FC010000036A1
:105910007C3017E6301FE3B0067FB00277F007E374
:10592000F03F7FF01336F0032630032630000000EE
:10593000000000000000000000000000C8EB0000B4
:105940000000000006000003800001C00000E0002D
:1059500000700000780000CC0000C6000183000346
:1059600001800700C00600E00C007018003018002D
:1059700000300000000000000000000000000000F7
:105980000000000000000000000000000000000017
:105990000000000000000000000000000000000007
:1059A00000000000000000000000000000000000F7
:1059B00000000000000000000000000000000000E7
:1059C00000000000000000000000000000000000D7
:1059D000F0590008000000208402000012100008A6
:1059E000245B00088402002074150000242F0008A6
:1059F00081124734CF0764B2FA12472BE70310AB8A
:105A0000F401142BF30110ABE803143AF910ABD0F6
:105A100007143A6310AB8813143A3110AB102714F3
:105A20003A04108BA0866532232910043940420FB6
:105A3000323C32825ABED41A365F1A72041AAE044D
:105A40001AE004231C021A4E041A80041AA8041A2D
:105A5000DA041A02C41A2A041A48041A70041A84AE
:105A6000041AA2041AB6041ACA041AD4041ADE04C8
:105A700029ECA9042914291C2924292C2934293C7E
:105A80002944294C2954295C2964296C2974297CCE
:105A90002984298C2994299C29A429AC29B429BCBE
:105AA00029C41EC4FFFFFF7E041A42041A06041E06
:105AB000CAFEFFFF8E041A52041A20041EE4FDFFE2
:105AC000FFB2041A80041A58041A26041EFEFCFFB2
:105AD000FFD6041AB8041A90041A7C041A5E041A39
